:100000000C943C010C9464010C9464010C94640104
:100010000C9464010C9464010C9464010C946401CC
:100020000C9464010C9464010C9464010C946401BC
:100030000C9464010C9464010C9464010C946401AC
:100040000C94EE090C9464010C9448080C947A0802
:100050000C9464010C9464010C9464010C9464018C
:100060000C9464010C9464012A2A2A204348414ECE
:1000700047494E4720544F20524543454956452055
:10008000524F4C45202D2D2050524553532027547C
:100090002720544F20535749544348204241434B53
:1000A000002A2A2A204348414E47494E4720544FB0
:1000B000205452414E534D495420524F4C45202D0F
:1000C0002D2050524553532027522720544F205360
:1000D0005749544348204241434B0053656E7420B6
:1000E000726573706F6E73652000206D6963726F47
:1000F0007365636F6E6473002C20526F756E642D90
:10010000747269702064656C617920002C20476FDF
:100110007420726573706F6E7365200053656E7422
:1001200020004661696C65642C20726573706F6E87
:1001300073652074696D6564206F75742E00666147
:10014000696C6564004E6F772073656E64696E67D5
:10015000002A2A2A2050524553532027542720741E
:100160006F20626567696E207472616E736D697469
:1001700074696E6720746F20746865206F74686599
:1001800072206E6F646500524632342F6578616D5F
:10019000706C65732F47657474696E675374617210
:1001A00074656400524632342048415244574152EB
:1001B00045204641494C3A20526164696F206E6F78
:1001C0007420726573706F6E64696E672C2076653B
:1001D000726966792070696E20636F6E6E656374F4
:1001E000696F6E732C20776972696E672C20657455
:1001F000632E0D0A0077726974655F7265676973B3
:1002000074657228253032782C25303278290D0A11
:10021000001112131415160A0B0C0D0E0F0001021B
:1002200003040500000008000201000003040700A9
:1002300000000000000000010204081020408001BE
:10024000020408102001020408102004040404041D
:100250000404040202020202020303030303030074
:10026000000000250028002B0000000000240027CB
:10027000002A0000A201AA0811241FBECFEFD8E077
:10028000DEBFCDBF11E0A0E0B1E0ECE1FDE102C0D6
:1002900005900D92A437B107D9F722E0A4E7B1E0A9
:1002A00001C01D92A533B207E1F712E0C8E7D2E022
:1002B00004C02297FE010E94920BC437D107C9F7F0
:1002C0000E94DF090C948C0E0C94000026E040E0A4
:1002D00052EC61E070E089E891E00E94E60767E88F
:1002E00071E089E891E00E94540961E571E089E8D4
:1002F00091E00E94540985E791E00E949D0661E02B
:1003000085E791E00E94420680918701882349F0A9
:1003100066E071E085E791E00E94740540E051E0FD
:1003200008C060E071E085E791E00E94740546E056
:1003300051E061E085E791E00E948E0585E791E05C
:100340000C94FC0548E067E085E791E00C947904A3
:10035000CF92DF92EF92FF92CF93DF93CDB7DEB7CC
:1003600028970FB6F894DEBF0FBECDBF8091740101
:10037000882309F488C085E791E00E948B0465E436
:1003800071E089E891E00E9454090E94440A6D835B
:100390007E838F83988744E0BE016B5F7F4F85E744
:1003A00091E00E944305811106C06EE371E089E887
:1003B00091E00E94540985E791E00E94FC050E94AB
:1003C000440A6B017C0185E791E00E94640581117C
:1003D0000EC00E94440A6C197D098E099F09613480
:1003E0007D408340910578F362E271E042C044E0D1
:1003F000BE016F5F7F4F85E791E00E9468050E9414
:10040000440A6B017C016CE171E089E891E00E9493
:100410002B092AE030E0B701A60189E891E00E94AB
:10042000BF096CE071E089E891E00E942B094981E5
:100430005A816B817C812AE030E089E891E00E945A
:10044000BF0968EF70E089E891E00E942B0989817B
:100450009A81AB81BC81B701A601481B590B6A0B7D
:100460007B0B2AE030E089E891E00E94BF096AEE48
:1004700070E089E891E00E94540968EE73E080E042
:1004800090E00E94670A80917401811135C085E770
:1004900091E00E946405882379F185E791E00E944C
:1004A0006405882349F044E0BE016F5F7F4F85E714
:1004B00091E00E946805F1CF85E791E00E948B04EE
:1004C00044E0BE016F5F7F4F85E791E00E944305E6
:1004D00085E791E00E94FC056BED70E089E891E012
:1004E0000E942B0949815A816B817C812AE030E08E
:1004F00089E891E00E94CC0989E891E00E94030715
:10050000892B41F189E891E00E941C070E94960B1B
:10051000843571F48091740181111CC061EA70E02E
:1005200089E891E00E94540981E08093740112C02F
:10053000823581F480917401882361F068E670E06F
:1005400089E891E00E9454091092740185E791E0D6
:100550000E94FC0528960FB6F894DEBF0FBECDBFF3
:10056000DF91CF91FF90EF90DF90CF900895CF93E0
:10057000CFB7F89480918801811127C0E5E5F2E0BA
:100580008491E1E4F2E09491E82FF0E0EE0FFF1F98
:10059000E759FD4FA591B4918C91892321F461E035
:1005A0008AE00E94370B61E08AE00E94FE0A8CB567
:1005B00080618CBD8CB580648CBD61E08DE00E9453
:1005C000FE0A61E08BE00E94FE0A809188018F5F45
:1005D00080938801CFBFCF9108958EBD00000DB4E8
:1005E00007FEFDCF8EB508952CB52F7D2CBD2CB503
:1005F000237F2CBD2CB52C7F2CBD2DB521602DBDAE
:10060000FC0181810E94370B85E090E00C948F0AF9
:10061000FC018081918189130C94370B089560E06F
:100620000C94F40261E00C94F402EF92FF921F9399
:10063000CF93DF931F92CDB7DEB77C0169830E9411
:100640000F036981862F8F710E94ED028FEF0E9448
:10065000ED02182FC7010E941203812F0F90DF9126
:10066000CF911F91FF90EF900895CF92DF92EF927C
:10067000FF920F931F93CF93DF9300D01F92CDB7BC
:10068000DEB78C01F22E4A835B8369830E940F03DD
:100690006981862F8F7180620E94ED02E82E4A8167
:1006A000C42E5B81D52EF40EFC1431F0F60181913D
:1006B0006F010E94ED02F8CFC8010E9412038E2D37
:1006C0000F900F900F90DF91CF911F910F91FF909E
:1006D000EF90DF90CF900895EF92FF921F93CF930A
:1006E000DF9300D0CDB7DEB77C011F924F931F92EE
:1006F0006F9325EF31E03F932F934A8369830E94E4
:10070000BB0BC7010E940F036981862F8F71806226
:100710000E94ED02182F4A81842F0E94ED02C7012A
:100720000E9412030F900F900F900F900F900F9058
:10073000812F0F900F90DF91CF911F91FF90EF903D
:100740000895AF92BF92DF92EF92FF920F931F93A3
:10075000CF93DF9300D01F92CDB7DEB78C01FC01A1
:10076000E580F42EE41608F4FE2CF8018681811150
:1007700002C0EF1801C0E12C1F92EF921F92FF926E
:10078000ECE0F1E0FF93EF9329836A837B830E947F
:10079000A70BC8010E940F032981822F0E94ED023E
:1007A000D82E0F900F900F900F900F900F906A819E
:1007B000A62E7B81B72EF60EFA1431F0F501819149
:1007C0005F010E94ED02F8CFEE2029F080E00E9448
:1007D000ED02EA94F9CFC8010E9412038D2D0F900B
:1007E0000F900F90DF91CF911F910F91FF90EF909D
:1007F000DF90BF90AF900895AF92BF92DF92EF92DB
:10080000FF920F931F93CF93DF9300D0CDB7DEB746
:100810008C01FC01E580F42EE41608F4FE2CF801AE
:100820008681811102C0EF1801C0E12C1F92EF9266
:100830001F92FF928AE291E09F938F9369837A835C
:100840000E94A70BC8010E940F0381E60E94ED02DF
:10085000D82E0F900F900F900F900F900F906981EE
:10086000A62E7A81B72EF60EFA1439F08FEF0E9479
:10087000ED02F50181935F01F7CFEE2029F08FEFB4
:100880000E94ED02EA94F9CFC8010E9412038D2D57
:100890000F900F90DF91CF911F910F91FF90EF90EC
:1008A000DF90BF90AF900895EF92FF921F93CF9388
:1008B000DF931F92CDB7DEB77C0169830E940F03DF
:1008C0006981862F0E94ED02182FC7010E94120332
:1008D000812F0F90DF91CF911F91FF90EF9008959E
:1008E00062EE0C94540461EE0C9454046FEF0C947B
:1008F0005404FC0160834183148280E28583168264
:1009000085E0848717820895462F6E3708F04DE7FB
:1009100065E00C946C03CF93DF93EC0160E00E94E0
:1009200008038D859E850E948F0A6DE1CE010E948D
:10093000150381FF07C08D859E850E948F0ACE0119
:100940000E94730460E0CE010E941503482F4E7F81
:1009500060E0CE010E946C0362E0CE010E941503AC
:10096000EDE1F2E0E49121E030E001C0220FEA95F0
:10097000EAF7822B482F62E0CE01DF91CF910C94F1
:100980006C03CF93DF93EC0160E00E94150381FDBF
:1009900012C060E0CE010E941503482F426060E063
:1009A000CE010E946C0365E070E080E090E0DF9192
:1009B000CF910C94670ADF91CF910895CF93DF9385
:1009C000EC0124EA31E03F932F930E94BB0B81E0BE
:1009D000898B0F900F90DF91CF9108950F93CF9354
:1009E000DF93EC01222311F020EB01C020EACE01BD
:1009F0000E94A103002339F061E0CE01DF91CF9185
:100A00000F910C940803DF91CF910F910895CF922D
:100A1000DF92EF92FF920F93CF93DF93EC0101E00F
:100A20000E94EE040E94380A6B017C01CE010E94F4
:100A30007604807379F40E94380A6C197D098E0956
:100A40009F09663571058105910580F3CE010E94ED
:100A5000DE040EC060E0CE010E94080340E767E0BC
:100A6000CE010E946C0384FF05C0CE010E94730476
:100A700080E001C081E0DF91CF910F91FF90EF9076
:100A8000DF90CF90089520E00C9407050F931F93FB
:100A9000CF93DF938C01EB0167E10E94150380FD8A
:100AA0000BC0209759F0C8010E94760490E09595FC
:100AB00087958770888302C080E001C081E0DF9164
:100AC000CF911F910F91089560E070E00C9446055E
:100AD000CF93DF93EC010E94FC0340E767E0CE0177
:100AE000DF91CF910C946C030F931F93CF93DF93FF
:100AF000EC018B012C85AB016AE00E9435032C854B
:100B0000A80160E1CE010E9435034D8161E1CE0173
:100B1000DF91CF911F910F910C946C03FF920F9373
:100B20001F93CF93DF93EC01F62E8A01611107C06A
:100B30004C8550E0B80107960E949E0B07C086E0E6
:100B4000861708F437C081E0681307C0EF2DF0E086
:100B5000E95EFD4F64912C8506C0E62FF0E0E95E6A
:100B6000FD4F649121E0A801CE010E9435030F2DB5
:100B700010E0F801EF5EFD4F64914D81CE010E94BF
:100B80006C0362E0CE010E941503F801E35EFD4FA5
:100B9000049121E030E001C0220F0A95EAF7822B90
:100BA000482F62E0CE01DF91CF911F910F91FF900E
:100BB0000C946C03DF91CF911F910F91FF900895DA
:100BC0001F93CF93DF93EC01162F62E00E94150371
:100BD000E12FF0E0E35EFD4FE49141E050E001C021
:100BE000440FEA95EAF74095482362E0CE01DF9191
:100BF000CF911F910C946C03CF93DF93EC010E9473
:100C0000C10460E0CE010E941503482F416060E0FE
:100C1000CE010E946C0340E767E0CE010E946C03A6
:100C200061E0CE010E9408038F81882349F02C8562
:100C3000AE01495F5F4F6AE0CE010E94350304C0F8
:100C400060E0CE010E94E0056DE1CE010E94150337
:100C500081FF05C0CE01DF91CF910C947304DF9129
:100C6000CF910895CF93DF93EC010E940F0380E5AD
:100C70000E94ED0283E70E94ED02CE01DF91CF9149
:100C80000C9412031F93CF93DF93EC01162F66E0B1
:100C90000E941503887F143020F4612F660F6F5F68
:100CA00001C067E0462F482B66E0CE01DF91CF916F
:100CB0001F910C946C03EF92FF920F931F93CF93AD
:100CC000DF931F92CDB7DEB77C018B0166E00E94F7
:100CD0001503582F577D0230110531F450620BE98E
:100CE00010E020E030E00DC00130110529F005E5ED
:100CF00010E020E030E005C0586001E410E020E0A2
:100D000030E0F701058716872787308B452F66E08F
:100D1000C70159830E946C0366E0C7010E94150356
:100D200091E05981851390E0892F0F90DF91CF9149
:100D30001F910F91FF90EF900895CF93DF93EC01F7
:100D400088819981891719F061E00E94FE0A8981E2
:100D50009881981719F061E00E94FE0A0E94B7027C
:100D600060E0CE010E94080361E0CE010E94F4021F
:100D700065E070E080E090E00E94670A4CE060E08F
:100D8000CE010E946C034FE564E0CE010E946C032B
:100D900062E070E0CE010E945B06882311F081E0E2
:100DA0008C8360E070E0CE010E945B06CE010E9461
:100DB000320640E06DE1CE010E946C0340E06CE140
:100DC000CE010E946C0340E767E0CE010E946C03F5
:100DD0006CE4CE010E948404CE010E947004CE0116
:100DE0000E947304CE010E94C10460E0CE010E9403
:100DF0001503482F4E7F60E0CE010E946C0380E017
:100E0000DF91CF910895FC01818D228D90E0805C6F
:100E10009F4F821B91098F7399270895FC01918D33
:100E2000828D981731F0828DE80FF11D858D90E04D
:100E300008958FEF9FEF0895FC01918D828D981793
:100E400061F0828DDF01A80FB11D5D968C91928DAE
:100E50009F5F9F73928F90E008958FEF9FEF0895AB
:100E600080EA98E0892B49F080E090E0892B29F016
:100E70000E94A00881110C9400000895FC01848D4B
:100E8000DF01A80FB11DA35ABF4F2C91848D90E0B4
:100E900001968F739927848FA689B7892C93A0898F
:100EA000B1898C9180648C93938D848D981306C046
:100EB0000288F389E02D80818F7D80830895CF9310
:100EC000DF93EC01888D8823C9F0EA89FB89808152
:100ED00085FD05C0A889B9898C9186FD0FC00FB624
:100EE00007FCF5CF808185FFF2CFA889B9898C9165
:100EF00085FFEDCFCE010E943E07E7CFDF91CF9176
:100F00000895CF92DF92FF920F931F93CF93DF93B9
:100F10001F92CDB7DEB76C0181E0D60158968C9355
:100F200058975B969C915B975C968C915C97981315
:100F300007C05096ED91FC915197808185FD2EC0A0
:100F4000F601038D10E00F5F1F4F0F731127F02E76
:100F5000F601848DF81211C00FB607FCF9CFD60147
:100F60005096ED91FC915197808185FFF1CFC6019C
:100F700069830E943E076981EBCF838DE80FF11DE5
:100F8000E35AFF4F6083D6015B960C935B975296B2
:100F9000ED91FC915397808180620CC0D6015696EA
:100FA000ED91FC91579760835096ED91FC9151978C
:100FB00080818064808381E090E00F90DF91CF9109
:100FC0001F910F91FF90DF90CF900895BF92CF9225
:100FD000DF92EF92FF92CF93DF93EC016A017B01E6
:100FE000B22EE889F98982E08083411581EE5807A5
:100FF00061057105A1F060E079E08DE390E0A70163
:1010000096010E946E0B21503109410951095695F4
:10101000479537952795211580E1380798F0E8899D
:10102000F989108260E874E88EE190E0A7019601EA
:101030000E946E0B2150310941095109569547957F
:1010400037952795EC85FD853083EE85FF852083D8
:10105000188EEC89FD89B082EA89FB8980818061E4
:101060008083EA89FB89808188608083EA89FB89A3
:10107000808180688083EA89FB8980818F7D80837D
:10108000DF91CF91FF90EF90DF90CF90BF900895C8
:101090001F920F920FB60F9211242F938F939F934D
:1010A000EF93FF93E0919901F0919A018081E09193
:1010B0009F01F091A00182FD12C090818091A20158
:1010C0008F5F8F732091A301821751F0E091A201ED
:1010D000F0E0E757FE4F958F8093A20101C0808119
:1010E000FF91EF919F918F912F910F900FBE0F90D5
:1010F0001F9018951F920F920FB60F9211242F93E5
:101100003F934F935F936F937F938F939F93AF938F
:10111000BF93EF93FF9389E891E00E943E07FF9110
:10112000EF91BF91AF919F918F917F916F915F915F
:101130004F913F912F910F900FBE0F901F901895D8
:1011400089E891E00E94030721E0892B09F420E05F
:10115000822F089510928C0110928B0188EE93E0FB
:10116000A0E0B0E080938D0190938E01A0938F0159
:10117000B093900189E591E090938A018093890171
:1011800085EC90E0909396018093950184EC90E03B
:10119000909398018093970180EC90E090939A014E
:1011A0008093990181EC90E090939C0180939B0146
:1011B00082EC90E090939E0180939D0186EC90E0FC
:1011C0009093A00180939F011092A2011092A3011D
:1011D0001092A4011092A5010895CF92DF92EF9290
:1011E000FF920F931F93CF93DF936C017A01EB0172
:1011F000E60EF71E00E010E0CE15DF0561F0699104
:10120000D601ED91FC910190F081E02DC601099588
:10121000080F191FF1CFC801DF91CF911F910F91D6
:10122000FF90EF90DF90CF9008956115710581F0E8
:10123000DB010D900020E9F7AD0141505109461B3B
:10124000570BDC01ED91FC910280F381E02D0994B4
:1012500080E090E00895EF92FF920F931F93CF9359
:10126000DF938C01FB01C0E0D0E064917F018FEF40
:10127000E81AF80A662361F0D801ED91FC9101901B
:10128000F081E02DC8010995C80FD91FF701EDCFF6
:10129000CE01DF91CF911F910F91FF90EF900895B4
:1012A00062E571E00C9415090F931F93CF93DF93C0
:1012B000EC010E942B098C01CE010E945009800F85
:1012C000911FDF91CF911F910F9108958F929F925F
:1012D000AF92BF92CF92DF92EF92FF920F931F9344
:1012E000CF93DF93CDB7DEB7A1970FB6F894DEBFEB
:1012F0000FBECDBF7C01C42EE52FCB01D22E19A28B
:1013000021E02D1510F02AE0D22E8E010F5D1F4F27
:101310008D2C912CA12CB12C6C2D7E2FA50194012C
:101320000E946E0B8C2DD29E801911240150110940
:101330008A3014F4805D01C0895CF8018083211536
:1013400031054105510521F0C22EE32FCA01E4CF3A
:10135000B801C7010E941509A1960FB6F894DEBF27
:101360000FBECDBFDF91CF911F910F91FF90EF90F6
:10137000DF90CF90BF90AF909F908F9008952115F0
:10138000310541F4DC01ED91FC910190F081E02DFB
:10139000642F09940C9466090F931F93CF93DF93E6
:1013A000EC010E94BF098C01CE010E945009800F00
:1013B000911FDF91CF911F910F91089508950E9481
:1013C0009A0A0E94DE090E946601C0E3D7E00E94EB
:1013D000A8012097E1F30E943007F9CF1F920F92E6
:1013E0000FB60F9211242F933F938F939F93AF9338
:1013F000BF938091270290912802A0912902B09179
:101400002A023091260223E0230F2D3720F4019683
:10141000A11DB11D05C026E8230F0296A11DB11D17
:10142000209326028093270290932802A0932902FA
:10143000B0932A0280912B0290912C02A0912D0250
:10144000B0912E020196A11DB11D80932B029093A5
:101450002C02A0932D02B0932E02BF91AF919F91C9
:101460008F913F912F910F900FBE0F901F90189565
:101470002FB7F89460912702709128028091290279
:1014800090912A022FBF08953FB7F89480912B02C4
:1014900090912C02A0912D02B0912E0226B5A89B0E
:1014A00005C02F3F19F00196A11DB11D3FBF662752
:1014B000782F892F9A2F620F711D811D911D42E097
:1014C000660F771F881F991F4A95D1F70895CF920D
:1014D000DF92EF92FF92CF93DF936B017C010E942A
:1014E000440AEB01C114D104E104F10489F00E9423
:1014F0006D0B0E94440A6C1B7D0B683E734090F399
:1015000081E0C81AD108E108F108C851DC4FEACFE0
:10151000DF91CF91FF90EF90DF90CF9008958230D0
:10152000910538F0880F991F880F991F059701972B
:10153000F1F70895789484B5826084BD84B58160A4
:1015400084BD85B5826085BD85B5816085BDEEE6CB
:10155000F0E0808181608083E1E8F0E010828081AA
:1015600082608083808181608083E0E8F0E0808118
:1015700081608083E1EBF0E0808184608083E0EB38
:10158000F0E0808181608083EAE7F0E08081846020
:10159000808380818260808380818160808380817C
:1015A000806880831092C1000895833081F028F410
:1015B000813099F08230A1F008958730A9F0883009
:1015C000B9F08430D1F4809180008F7D03C0809188
:1015D00080008F7780938000089584B58F7702C054
:1015E00084B58F7D84BD08958091B0008F7703C04E
:1015F0008091B0008F7D8093B0000895CF93DF93EA
:1016000090E0FC01E95CFD4F2491FC01E55BFD4F9E
:101610008491882349F190E0880F991FFC01E759D4
:10162000FD4FA591B491815A9D4FFC01C591D49174
:101630009FB7611108C0F8948C91209582238C93F8
:10164000888182230AC0623051F4F8948C91322F41
:10165000309583238C938881822B888304C0F894EF
:101660008C91822B8C939FBFDF91CF9108950F9324
:101670001F93CF93DF931F92CDB7DEB7282F30E0B3
:10168000F901ED5DFD4F8491F901E95CFD4F149185
:10169000F901E55BFD4F04910023C9F0882321F097
:1016A00069830E94D50A6981E02FF0E0EE0FFF1FE9
:1016B000E15AFD4FA591B4919FB7F8948C916111B7
:1016C00003C01095812301C0812B8C939FBF0F9085
:1016D000DF91CF911F910F9108950895A1E21A2EE5
:1016E000AA1BBB1BFD010DC0AA1FBB1FEE1FFF1FC6
:1016F000A217B307E407F50720F0A21BB30BE40B16
:10170000F50B661F771F881F991F1A9469F760955C
:101710007095809590959B01AC01BD01CF01089516
:10172000EE0FFF1F0590F491E02D0994911108959B
:1017300081568A5108F4805285580895FB01DC01D6
:1017400002C001900D9241505040D8F70895A0E09A
:10175000B0E0EDEAFBE00C94650EFE013596619178
:101760007191AF0180913102909132020E94DD0BA4
:10177000E2E00C94810EA0E0B0E0E1ECFBE00C9420
:10178000630EFE0137966191719101E312E0D80179
:101790008D919C91DC0113962C91139728601396E0
:1017A0002C93AF010E94DD0BD801ED91FC912381B8
:1017B000277F2383E4E00C947F0EACE0B0E0E3EEFF
:1017C000FBE00C94550E7C016B018A01FC01178231
:1017D0001682838181FFBDC1CE0101964C01F701C4
:1017E0009381F60193FD859193FF81916F01882389
:1017F00009F4ABC1853239F493FD859193FF819152
:101800006F01853229F4B70190E00E94C50DE7CF42
:10181000512C312C20E02032A0F48B3269F030F4CE
:10182000803259F0833269F420612CC08D3239F056
:10183000803339F4216026C02260246023C02860F0
:1018400021C027FD27C030ED380F3A3078F426FF4D
:1018500006C0FAE05F9E300D1124532E13C08AE0BB
:10186000389E300D1124332E20620CC08E3221F4AC
:1018700026FD6BC1206406C08C3611F4206802C0BE
:10188000883641F4F60193FD859193FF81916F01B4
:101890008111C1CF982F9F7D9554933028F40C5F10
:1018A0001F4FFFE3F9830DC0833631F0833771F0AA
:1018B000833509F05BC022C0F801808189830E5F07
:1018C0001F4F44244394512C540115C03801F2E0B9
:1018D0006F0E711CF801A080B18026FF03C0652D3A
:1018E00070E002C06FEF7FEFC5012C870E94BA0D38
:1018F0002C0183012C852F77222E17C03801F2E0AE
:101900006F0E711CF801A080B18026FF03C0652D09
:1019100070E002C06FEF7FEFC5012C870E94AF0D12
:101920002C012C852068222E830123FC1BC0832DD3
:1019300090E048165906B0F4B70180E290E00E94AA
:10194000C50D3A94F4CFF50127FC859127FE8191CE
:101950005F01B70190E00E94C50D31103A94F1E0AB
:101960004F1A51084114510471F7E5C0843611F043
:10197000893639F5F80127FF07C0608171818281BE
:1019800093810C5F1F4F08C060817181882777FDAC
:101990008095982F0E5F1F4F2F76B22E97FF09C0AC
:1019A00090958095709561957F4F8F4F9F4F2068E0
:1019B000B22E2AE030E0A4010E94F70DA82EA8184C
:1019C00044C0853729F42F7EB22E2AE030E025C0AE
:1019D000F22FF97FBF2E8F36C1F018F4883579F0D9
:1019E000B4C0803719F0883721F0AFC02F2F2061A5
:1019F000B22EB4FE0DC08B2D8460B82E09C024FF1A
:101A00000AC09F2F9660B92E06C028E030E005C0BE
:101A100020E130E002C020E132E0F801B7FE07C06B
:101A200060817181828193810C5F1F4F06C060814C
:101A3000718180E090E00E5F1F4FA4010E94F70DBE
:101A4000A82EA818FB2DFF77BF2EB6FE0BC02B2D9E
:101A50002E7FA51450F4B4FE0AC0B2FC08C02B2D92
:101A60002E7E05C07A2C2B2D03C07A2C01C0752C3C
:101A700024FF0DC0FE01EA0DF11D8081803311F4B9
:101A8000297E09C022FF06C07394739404C0822F7C
:101A9000867809F0739423FD13C020FF06C05A2CEA
:101AA000731418F4530C5718732C731468F4B7019B
:101AB00080E290E02C870E94C50D73942C85F5CFB1
:101AC000731410F4371801C0312C24FF12C0B70171
:101AD00080E390E02C870E94C50D2C8522FF17C063
:101AE00021FF03C088E590E002C088E790E0B701DD
:101AF0000CC0822F867859F021FD02C080E201C01F
:101B00008BE227FD8DE2B70190E00E94C50DA51480
:101B100038F4B70180E390E00E94C50D5A94F7CFE6
:101B2000AA94F401EA0DF11D8081B70190E00E94B2
:101B3000C50DA110F5CF332009F451CEB70180E2D5
:101B400090E00E94C50D3A94F6CFF7018681978107
:101B500002C08FEF9FEF2C96E2E10C94710EFC0116
:101B60000590615070400110D8F7809590958E0FC8
:101B70009F1F0895FC016150704001900110D8F73B
:101B8000809590958E0F9F1F08950F931F93CF936D
:101B9000DF93182F092FEB018B8181FD03C08FEF9D
:101BA0009FEF20C082FF10C04E815F812C813D815C
:101BB000421753077CF4E881F9819F012F5F3F4F63
:101BC00039832883108306C0E885F985812F09951C
:101BD000892B29F72E813F812F5F3F4F3F832E8333
:101BE000812F902FDF91CF911F910F910895FA01CE
:101BF000AA27283051F1203181F1E8946F936E7F4C
:101C00006E5F7F4F8F4F9F4FAF4FB1E03ED0B4E03C
:101C10003CD0670F781F891F9A1FA11D680F791F7D
:101C20008A1F911DA11D6A0F711D811D911DA11D8E
:101C300020D009F468943F912AE0269F112430199E
:101C4000305D3193DEF6CF010895462F4770405D39
:101C50004193B3E00FD0C9F7F6CF462F4F70405DE8
:101C60004A3318F0495D31FD4052419302D0A9F743
:101C7000EACFB4E0A6959795879577956795BA953D
:101C8000C9F700976105710508959B01AC010A2E03
:101C900006945795479537952795BA95C9F7620FDA
:101CA000731F841F951FA01D08952F923F924F927E
:101CB0005F926F927F928F929F92AF92BF92CF92DC
:101CC000DF92EF92FF920F931F93CF93DF93CDB7E5
:101CD000DEB7CA1BDB0B0FB6F894DEBF0FBECDBF5D
:101CE00009942A88398848885F846E847D848C842E
:101CF0009B84AA84B984C884DF80EE80FD800C8137
:101D00001B81AA81B981CE0FD11D0FB6F894DEBF19
:0C1D10000FBECDBFED010895F894FFCF89
:101D1C00314E6F646500324E6F6465005B577269BB
:101D2C0074696E672025752062797465732025753A
:101D3C0020626C616E6B735D0A005B526561646955
:101D4C006E67202575206279746573202575206275
:101D5C006C616E6B735D0A00464541545552453DAE
:101D6C0025690D0A00000000008107ED0803071C1F
:101D7C00070E075F076E616E00696E66006F766610
:041D8C00002E000025
:00000001FF
